:020000040800F2
:10000000300800203D0200081B360008272A00089F
:1000100017360008312200089D4300080000000048
:10002000000000000000000000000000F93F000890
:10003000B924000800000000E13E00080D4100085E
:10004000570200085702000857020008570200082C
:10005000570200085702000857020008570200081C
:10006000570200085702000857020008570200080C
:1000700057020008570200085702000857020008FC
:1000800057020008570200085702000857020008EC
:1000900057020008570200085702000857020008DC
:1000A00057020008570200085702000857020008CC
:1000B00057020008570200085702000857020008BC
:1000C00057020008570200085702000857020008AC
:1000D00057020008714100088D41000857020008CE
:1000E00057020008570200085702000800F002F803
:1000F00000F094F80AA090E8000C82448344AAF12E
:100100000107DA4501D100F089F8AFF2090EBAE82B
:100110000F0013F0010F18BFFB1A43F0010318473B
:10012000DC6E0000FC6E0000103A24BF78C878C175
:10013000FAD8520724BF30C830C144BF04680C60ED
:10014000704700000023002400250026103A28BF35
:1001500078C1FBD8520728BF30C148BF0B60704739
:100160006E2900F03785702900F0E781662906F0D6
:10017000A185652906F09E85672906F09B85612982
:1001800006F09A8503681B0A28BF41F0800169299F
:1001900000F05881642900F05581752900F05281E2
:1001A0006F2901F03480782900F0B381E92900F04B
:1001B000CF87E42900F0CC87F52900F0C987EF2923
:1001C00001F03180F82900F0B2810368DB0928BF13
:1001D00041F08001632900F05087732900F05587B2
:1001E000E32901F09382F32901F0988200207047FF
:1001F0001FB59DE8030000F041FC01F05BF804002E
:100200000020002105F0B6FD401C606000200021A8
:1002100005F0C6FDE0601FBD10B510BD01F06CFB20
:100220001146FFF7E5FF04F02BFC01F098FB03B447
:10023000FFF7F2FF03BC01F0C9FB0000094880474B
:1002400009480047FEE7FEE7FEE7FEE7FEE7FEE7B8
:10025000FEE7FEE7FEE7FEE704480549054A064BD0
:100260007047000011410008ED0000083002002036
:1002700030080020300400203004002070B506460D
:1002800000F0DCFB056806F10B0020F00704B44227
:100290009CBF002070BD2B466A68BAB11068A042AE
:1002A00010D304F1080188423CBF5068586007D35E
:1002B0005168101941601168091B01605860146091
:1002C000101D70BD13465268002AE7D1214628460A
:1002D00000F0C0FB0028DED170BD70B50446051FDC
:1002E00000F0ACFB0068002C14BF446870BD002C0B
:1002F00018BFAC423CBF20466468F8D301680A18B6
:10030000AA4218BF456003D12A680546114401601E
:1003100028684119A1421CBF6C6070BD61686960AA
:1003200021680844286070BD10B5044600F07EFBCB
:100330000068005DC00602D504F1200010BD204613
:1003400010BD00007CB51D4616460C00009001D083
:100350002044401E074B7B442A46694601903046A4
:1003600000F061FE05461CB10020694600F06EFEFB
:1003700028467CBDFD0C00000FB41CB5084B06AA36
:100380007B4469460090059800F04DFE044600202D
:10039000694600F05BFE20461CBC5DF814FB0000C3
:1003A000C90C000070B5044685690068C10601D516
:1003B000302600E02026C00707D070BDD4E9012117
:1003C00030469047206A401C20626D1EF6D570BDF5
:1003D00070B5044685690078C00707D170BDD4E9BF
:1003E000012120209047206A401C20626D1EF6D516
:1003F00070BD70B50C460546012A05D028788006E8
:1004000000D5EA69002302E0012305E05B1C93426A
:1004100002D2E05C0028F9D1A869E618C01AA861E8
:10042000286A184428622846FFF7BCFF04E0D5E993
:10043000012114F8010B9047B442F8D32846FFF786
:10044000C7FF70BD2DE9F0410646002410687529EC
:10045000314616A510D000F052FB002802DA4042C7
:1004600013A507E031688A0701D512A502E0490704
:1004700004D511A5012401E000F04AFB00210A2265
:1004800006F1240709E0B0FBF2FCB0FBF2F302FB3B
:100490001C00303078541846491C0028F3D12346FC
:1004A0002A463046BDE8F04100F03BBB00000000AA
:1004B0002D0000002B00000020000000F0B40D46CD
:1004C0000188090502D5214C7C4402E01F4C7C4484
:1004D0000E34002100F1240608E002F00F07120993
:1004E000E75D42EA03721B097754491C52EA03078D
:1004F000F3D102780023120704D5702D06D009B17C
:10050000022311342246F0BC00F00BBB012310344F
:10051000F8E770B504460D462146106800F0F8FA79
:10052000024629462046BDE870400023C6E7D21D9A
:1005300022F00703D3E90023C0E70368126843F001
:10054000200303600823C3610023B7E7F8680000B5
:100550002DE9F05F894604464FF0000ADFF874B1D8
:10056000FB44C0F820A02046E1688847002874D0EA
:10057000252806D0D4E901219047206A401C20623A
:10058000F1E700265F462046E168884720280546B7
:1005900007DB312D05D2781910F8200C08B106437D
:1005A000F1E7B00701D526F00406C4F81CA0002727
:1005B000C4F818A02A2D09D0284604F065F838B3ED
:1005C00004EB8708303DC8F8185019E059F8041BAF
:1005D000204604EB87029161E1688847012F0546B8
:1005E00018D1E069002820DA26F020061DE0D8F8AE
:1005F000180000EB800005EB40003038C8F8180008
:100600002046E1688847054604F03EF80028EED110
:10061000012F0AD02E2D08D12046E16888477F1C83
:100620000546022F46F02006C4DBA069002803DA45
:10063000404246F00106A061F00701D026F0100606
:100640006C2D0BD0682D09D04C2D39D06A2D35D0AA
:10065000742D35D07A2D33D016E038E0E1682F467E
:1006600020468847B842054609D16C2F26D04FF462
:100670008060E168064320468847054604E06C2F09
:100680001AD04FF4807006430DB3A5F1410019282C
:1006900002D8203546F400664A46294620462660A0
:1006A0004E46FFF75DFD80B101280BD0F61D26F008
:1006B000070000F1080956E74020E4E78020D8E76A
:1006C0000020D6E706F104094DE7284652E7206AE4
:1006D000BDE8F09F8868000070B5064600F0B2F9EA
:1006E0000468054630460A22002100F0A7FD2C6070
:1006F00070BD401ECAB210F8011F8A4202D0002904
:10070000F9D10020704710B5431E13F8014F002C9B
:10071000FBD105E011F8014B002C03F8014B03D08D
:10072000521EF7D20021197010BD30B505460B4698
:100730002A4613F8014B12F8010B08B1A042F8D079
:100740001CB1002802D06D1CF1E7284630BD10B561
:10075000431C02E010F8011B71B18107FAD14FF080
:10076000013202C88C1A8C4314EAC211F9D0C01AA3
:100770000A0603D0C01E10BDC01A10BD0A0401D065
:10078000801E10BD0902FCD0401E10BD40EA0103CE
:1007900070B59B072ED14FF00136042A2AD308C822
:1007A00010C99D1B9D43121F15EAC61517D0D8B25C
:1007B000E1B2401A50EA056110D198B2A1B2401AD4
:1007C00050EA05410AD123F07F4024F07F41401ACE
:1007D00050EA052102D1180EA0EB146070BDA342AF
:1007E000DBD018BA21BA884201D9012070BD4FF080
:1007F000FF3070BD0AB9002070BD10F8013B11F840
:10080000014B63B1A3420AD1521E08D010F8013B3C
:1008100011F8014B1BB1A34201D1521EEDD1181B9F
:1008200070BD032A40F2308010F0030C00F01580F8
:1008300011F8013BBCF1020F624498BF11F801CBE3
:1008400000F8013B38BF11F8013BA2F1040298BF48
:1008500000F801CB38BF00F8013B11F0030300F0B2
:100860002580083AC0F0088051F8043B083A51F856
:1008700004CBA0E80810F5E7121D5CBF51F8043B5B
:1008800040F8043BAFF30080D20724BF11F8013BCE
:1008900011F801CB48BF11F8012B24BF00F8013B30
:1008A00000F801CB48BF00F8012B704710B5203A83
:1008B000C0F00B80B1E81850203AA0E81850B1E819
:1008C0001850A0E81850BFF4F5AF5FEA027C24BFCF
:1008D000B1E81850A0E8185044BF18C918C0BDE8C6
:1008E00010405FEA827C24BF51F8043B40F8043B8F
:1008F00008BF7047D20728BF31F8023B48BF11F844
:10090000012B28BF20F8023B48BF00F8012B70479D
:100910004FF000020429C0F0128010F0030C00F028
:100920001B80CCF1040CBCF1020F18BF00F8012BA6
:10093000A8BF20F8022BA1EB0C0100F00DB85FEA74
:10094000C17C24BF00F8012B00F8012B48BF00F840
:10095000012B70474FF0000200B5134694469646AF
:10096000203922BFA0E80C50A0E80C50B1F12001C2
:10097000BFF4F7AF090728BFA0E80C5048BF0CC070
:100980005DF804EB890028BF40F8042B08BF7047CE
:1009900048BF20F8022B11F0804F18BF00F8012B40
:1009A000704700004FF0013C50F8042B51F8043B15
:1009B0009A4221D1A2EB0C03934313EACC1317D133
:1009C00050F8042B51F8043B9A4215D1A2EB0C03CA
:1009D000934313EACC130BD150F8042B51F8043B8A
:1009E0009A4209D1A2EB0C03934313EACC13DBD058
:1009F0004FF00000704700BFD01A01BAB1FA81F180
:100A000001F0180122FA01F0CB40C1F12001DBB264
:100A1000C0B2C01A2CFA01F3D11A914311EAC311E2
:100A2000E6D17047704770477047000010B500F07E
:100A300041FC001D10BD00BF3D5300000048704741
:100A4000D801002000487047D0010020704770474F
:100A50007047704738B504460A4600206946AFF330
:100A60000080002808BF38BD02460099204600F0EB
:100A700025FC012038BD012000F036BFF8B5AFF3EA
:100A80000080054600200C46102000BF0646A8192D
:100A9000A0420DD9324669460020AFF3008007001E
:100AA00008BF00F021FF0098A04218BF0546C419F6
:100AB000FFF7C4FF05600746F01D20F00700461948
:100AC000284600F00AF8B44208BFF8BDA21B314620
:100AD0003868BDE8F84000F0F1BB00210160C0E9D2
:100AE000011070471020704710B5FFF7ABFF00688A
:100AF00010BD10B50446FFF7A5FF046010BD0968DE
:100B00004A0501D540B27047C905FCD500B270470F
:100B100009684A0501D5C0B27047C905FCD580B245
:100B200070472DE9F0470D4699469246044600F17C
:100B300024080168880604D5E06921F010012160CD
:100B400000E00120A84201DD471B00E00027A16969
:100B50007A1902EB0900081AA0612078C00602D4B5
:100B60002046FFF71FFC002608E0D4E901211AF80F
:100B700006009047206A401C761C20624E45F4DB3C
:100B80002078C0060AD52046FFF70CFC06E0D4E921
:100B9000012130209047206A401C2062381EA7F1B6
:100BA0000107F4DC07E0D4E9012118F805009047BB
:100BB000206A401C2062281EA5F10105F3DC2046B6
:100BC000FFF706FC2078000602D50220BDE8F0877A
:100BD0000120FBE711680268006A530501D508701F
:100BE0000AE0D30501D5088006E0130603D5C21735
:100BF000C1E9000200E008600120704770472DE95C
:100C0000FF4F0C461E464FF0FF378BB0D2E9000174
:100C1000DDF860800A908A46C1F30A5505B93D4661
:100C2000002108464FF00000BAF1000F00F4400028
:100C300005DA00EB80004FF4400101EA50004FEA72
:100C40009059B9F1010F00DDB9460A9850EA4A00FF
:100C50000ED044F61050A5F2FF3545432F14B8F1DD
:100C6000000F1ED07542291E1EDDC9F100021CE0D6
:100C7000B8F1010F4FF0000001D0302103E0F24342
:100C800005E02154401CB042FBDB3046002200212D
:100C900021540B99C1F80880C1E900200FB0BDE8CC
:100CA000F08FBD1B6D1CDEE74A4600DA694206A8DC
:100CB00000F088FD06AB93E8070003AB83E807006C
:100CC00050460A9900F0A8FE8DE80700A0F50050F4
:100CD0001F3800900398002D0ADD42F21F014A469A
:100CE0000844002303A90390684601F011F909E0C4
:100CF000A0F500504A461F38002303A90390684618
:100D000001F01BF98DE807000004000C03D04FF040
:100D1000FF30410800E01046B8F1000F03D0002278
:100D2000009215461EE0751E05D400F0E1FA30323F
:100D300062556D1EF9D5B3460122084302D0002248
:100D40007F1C04E02078302801D100227F1E002A79
:100D5000099784D01DE0112D07DA00F0C9FA30326E
:100D600062556D1C50EA0102F5D1084302D000988B
:100D7000C8B10EE00021681E05E0235C625C63548C
:100D80002254401E491C8142F7DBAB46A81B401E83
:100D90000990002004F80B000B98099AC0F808800D
:100DA000C0E9002B7AE711264FF0000857E72DE93C
:100DB000F04F88460446D21D22F0070191B0D1E9D8
:100DC0000001CDE90A0103F0D6FB02460B98C00FE3
:100DD00001D02D2007E02068810701D52B2002E0FB
:100DE000202101EAC000032A099001D0072A05DB6F
:100DF00003464146204600F03FFC0BE12078800688
:100E000001D5E06900E00620B8F1650F814606D003
:100E1000B8F1660F18D0B8F1670F70D131E000203B
:100E2000B9F1110F009001DB112301E009F1010379
:100E30000AAA01A90CA8FFF7E2FEDDE90C70002662
:100E400009F10105834647E001204B4600904FF031
:100E500000470AAA01A90CA8FFF7D1FEDDE90DB0F1
:100E60000C995D46002610B909F101000D18B9EB87
:100E7000050003D4C0F1FF3609F10105A5EB090017
:100E80002BE0B9F1010F01DA4FF001090020B9F1AF
:100E9000110F0090484601DD112300E003460AAA25
:100EA00001A90CA8FFF7ABFEDDE90C704D4600264A
:100EB0008346207800070AD4AB4500DA5D4601A8D6
:100EC000012D04DD411911F8011C302907D04F45CF
:100ED00002DA17F1040F04DA012082460FE06D1EDA
:100EE000EEE7002F02DCED1B3E4403E0781CA84235
:100EF00000DD7D1CB81B00F1010A4FF0004720788F
:100F0000000703D4AA4501DB4FF0FF3A0021B7F1F7
:100F1000004F0DF143088DF8431024D002202B23FD
:100F2000002F01DA7F422D230A21021EA0F10100C9
:100F300000DC5FB197FBF1FC97FBF1F201FB1C7C3D
:100F400017460CF1300C08F801CDEEE7A8F10100CE
:100F500003702188090501D5452100E06521A0F134
:100F6000010800F8011C09980FA9A1EB0807FF1D53
:100F700000B10120411901EBEA70A1693844081A57
:100F8000401EA0612078C00602D42046FFF70AFA6E
:100F9000099828B1D4E901219047206A401C2062B9
:100FA0002078C00622D52046FFF7FCF91EE0002E6F
:100FB00004DBB34502DD01A8805D00E03020D4E908
:100FC00001219047206A401C2062761CAAF1010092
:100FD0005FEA000A0AD100F06DF9C0680168405C60
:100FE000D4E901219047206A401C2062281EA5F107
:100FF0000105DCDC07E0D4E9012118F8010B90477A
:10100000206A401C2062381EA7F10107F3DC20464D
:10101000FFF7DEF9032011B041E6000001694A1C28
:1010200002610878704700B58FB0CDE90131002129
:10103000059105497944CDE9031011466846FFF74B
:1010400087FA0FB000BD0000E5FFFFFF0A6802F855
:10105000010B0A607047D1E900239A4202D2531C67
:101060000B601070704710B5436913B1AFF3008087
:1010700001E0FFF7BEF9012010BD127800F1240154
:101080000A7000224A700122EDE711684FF0FF322A
:10109000E9E700002DE9FF5F15468A460446DFF8C0
:1010A000AC80F8440027D8E900103E46CDE9001096
:1010B00010E03AF816106A4602A800F0F5FB411C51
:1010C00007D02178890603D5E269391891420DD8F5
:1010D0000744761C2078800602D5E069B84205DD19
:1010E000AE42E6DB3AF816000028E2D1A069C01B48
:1010F000A0612046FFF756F9D8E90010CDE90010AD
:10110000002017E03AF818106A4602A800F0CCFB5D
:10111000B0F1FF3F81460BD000250DF1080B05E033
:10112000D4E901211BF8050090476D1C4D45F7D30C
:1011300008F10100B0428046E4DB206A38442062B6
:101140002046FFF745F9BDE8FF9F0000E25D000083
:101150002DE9F0418046D21D22F007020025D2E998
:101160000002F52915A614D0011E72F1000106DA5D
:101170000023D0EB030063EB020211A608E0D8F8CD
:1011800000108B0701D50FA602E0490701D50EA676
:1011900001251146002408F1240704E000F0A8F816
:1011A00030323A55641C50EA0102F7D12B463246E0
:1011B00021464046BDE8F041FFF7B3BC0000000007
:1011C0002D0000002B0000002000000030B40021A2
:1011D00000F1240408E002F00705D208303542EAA5
:1011E0004372DB086554491C52EA0305F3D10468D5
:1011F000002310A2250707D5A40600D421B1C46995
:1012000001230DA2641EC46130BCFFF78ABC10B577
:10121000044621461068FFF77BFC02462046BDE8E5
:1012200010400023D2E7D21D22F00701D1E90023AC
:10123000CCE7000000000000300000002DE9F0477E
:1012400091460F4680460446002614F8015B2DB1F6
:10125000FFF7ECFB0068405DC007F6D12B2D02D0F4
:101260002D2D18D0641E4A463946204600F05AFA01
:1012700027B13968A14201D1C7F800804FF00204BC
:1012800071050BD54042002803DDFFF7DBFB04604E
:10129000A007BDE8F08746F48066E4E70028F8DAA6
:1012A000FFF7D0FB04606FF00040F2E700487047A2
:1012B000D001002000487047F0010020034640683C
:1012C0008C46002818BF88423CBF03464068F8D3CC
:1012D00018681844884207D00CF1030020F007007A
:1012E000001D411A521A0146081D0A60FEF7F5BF9B
:1012F00030B5B0F10A024FEA900E71F100034EEAE8
:10130000817EB0EB0E0061EB91014FEA101E4EEAB8
:10131000017E10EB0E0041EB11114FEA102E4EEA48
:10132000016E10EB0E0041EB11214FEA104E4EEA18
:10133000014E10EB0E0041EB1141401841F100014C
:101340004FEAD00040EA41704FEAD10110EB80052E
:101350004FEA810444EA907444EB01046D1944EBB4
:101360000404521BA3414FF0000348BF0A3200D5CA
:1013700030BD401C41F1000130BD00002DE9F04FAF
:1013800004460D46D21D22F0070089B0D0E900972F
:101390004846394603F0EFF80246F80F01D02D23F6
:1013A00007E02068810701D52B2302E0202101EA14
:1013B000C0038DF820300BB1012000E00020032A8B
:1013C000824601D0072A04DB2946204600F054F962
:1013D0003FE12078800601D40D2500E0E569C7F3E0
:1013E0000A560D2D49DA00214FEA175B08464FF0E7
:1013F0000000002F00F4400007DA00EB80004FF4FB
:10140000400100EBD07001EA60008115012901DD87
:101410004FF0FF3100224FEA850CBCF1180F06D3C4
:101420001346ACF118004FF08052C24003E04FF475
:10143000801323FA0CF30CF10C0CBCF1200F04D335
:10144000ACF1200C09FA0CF001E007FA0CF00029CD
:101450004FF0004801DD18B90FE00ED140450CD324
:1014600019EB02095F4121B9404502D19F4329EAA6
:101470000209BBEB175F00D0761C2088000502D55F
:101480007B48784402E07A487844193808AA302327
:1014900002F80A30037C0AF10101002E0AF1020A67
:1014A00053546A4602DC4FF0300101E04FF0310145
:1014B0004FF001088DF8001002D0A6F2FF3603E0CD
:1014C00059EA470100D06B4E002D02DC2178090754
:1014D00004D54FF002082E218DF80110C4460021DA
:1014E0000BE0C7F303433F01C35C491C6D1E02F8C8
:1014F0000830052908F1010801DA002DF1DC00218E
:101500000CE000EB1973491C1B786D1E082902F8CA
:1015100008304FEA091908F1010801DA002DF0DC62
:1015200021688B0602D516E0A8F10108E04505DD2B
:1015300002EB080313F8013C302BF5D0B8F1000F93
:1015400009DD02EB080313F8013C2E2B03D1090738
:1015500001D4A8F10108002D05DD3E2102F8081094
:101560006D1E08F10108407C002E02F8080008F109
:10157000010804DA2D20764202F8080002E02B2050
:1015800002F808000A214FF47A70864208F1010837
:101590000BDB96FBF0F3303302F8083096FBF0F3E8
:1015A00008F1010800FB136601E0642E0CDB6420E7
:1015B00096FBF0F3303302F8083096FBF0F308F1B5
:1015C000010800FB136601E00A2E06DB96FBF1F032
:1015D000303002F8080008F1010896FBF1F001FB39
:1015E0001060303002F80800A16908F1010808EB2A
:1015F000050202EB0A00081AA0612078C00602D496
:101600002046FEF7CFFE216A08AE01EB0A002062F9
:1016100004E0D4E9012116F8010B9047BAF1010A60
:10162000F7D22078C00602D52046FEF7BBFE6E46F4
:1016300009E016F8010B3E280FD0D4E901219047AC
:10164000206A401C2062B8F10108F2D22046FEF761
:10165000BFFE09B00320BDE8F08F206A2844206255
:1016600003E0D4E90121302090476D1EEBD3F8E769
:10167000255A000002FCFFFF2DE9F0411F460446F9
:1016800003260168072A01F4006004DB08B116A5EF
:1016900005E016A503E008B115A500E015A521F0A9
:1016A00010002060A069C01EA0610FB1401EA061A3
:1016B0002046FEF777FE4FB1D4E901213846904726
:1016C000206A401C2062C01C206206E0206AFAE703
:1016D000D4E9012115F8010B9047761EF8D2204677
:1016E000FEF776FEBDE8F0814E414E006E616E0061
:1016F000494E4600696E660010B5436913B1AFF3F9
:10170000008001E0FFF7C6FC012010BD128800F147
:10171000240182840022C2840122EDE711684FF087
:10172000FF32E9E72DE9F05F824615468B46002738
:101730000AF10104B9460078302801D09DB113E0C8
:1017400014F8010B0127782803D0582801D045B19F
:101750000AE00DB1102D07D1002714F8010B102558
:1017600002E0082500E00A250026B0460EE005FB51
:10177000080005FB06F101271FFA80F801EB10466F
:10178000B6F5803F00D3B94614F8010B294600F0A6
:10179000D8F80028EBDABBF1000F05D00FB1641EBA
:1017A00000E05446CBF80040B9F1000F06D0FFF737
:1017B00049F902210160C81EBDE8F09F48EA0640D1
:1017C000FAE700002DE9F047814616468AB0354811
:1017D00078440DC88DE80D0032487844801C03AC75
:1017E0000DC884E80D0041F69B300844372190FB7A
:1017F000F1F290FBF1F5A5F1800501FB12041B3C11
:1018000002D56442012000E00020DFF898A0804665
:101810000027FA44AAF1BE0A0EE0E0070AD03246D9
:10182000684607EB470101230AEB810100F085FBC5
:101830008DE8070064107F1C002CEED1194F7F4407
:10184000AE3F19E0E80715D007EB04100DF1180AB8
:1018500090E80E008AE80E00C068F04201D19819A5
:1018600008903246012306A903A800F066FB03ABEB
:1018700083E807006D10641C002DE3D14FF00103D5
:1018800032466946B8F1000F03A802D000F040FBD1
:1018900001E000F052FBC9E90001C9F808200AB0D4
:1018A000BDE8F0876857000070B516460C4605463F
:1018B000FFF7BCF8036893F80101012806D0FF2C5C
:1018C0000FD8185D68B101202C7070BDD3F80701E6
:1018D0003246214603F2071303442846BDE8704010
:1018E00018474FF0FF3070BD10B500F047F8BDE865
:1018F000104000F03DB870477546FFF7D7FCAE4684
:1019000005006946534620F00700854618B020B50B
:10191000FEF7A2FCBDE820404FF000064FF00007A4
:101920004FF000084FF0000B21F00701AC46ACE887
:10193000C009ACE8C009ACE8C009ACE8C0098D46F4
:1019400070473A2800D2303820F02002412A01D3D3
:10195000A2F13700884201D34FF0FF30704710B535
:101960000446AFF300802046BDE81040FEF75FBCA0
:10197000002801D000F02AB87047000010B50128F7
:1019800005D0002103A000F027F8012010BD09A117
:10199000F8E7000053494752544D454D3A204F75E2
:1019A00074206F662068656170206D656D6F727957
:1019B000000000003A2048656170206D656D6F720F
:1019C0007920636F72727570746564000149182024
:1019D000ABBEFEE72600020070B505460C460A20A5
:1019E00000E06D1C00F011F835B128780028F8D11E
:1019F00002E0641C00F009F814B120780028F8D146
:101A0000BDE870400A20AFF3008008B569468DF844
:101A100000000320ABBE08BD5FEA400C08BF91F098
:101A2000000F4FEA8C234FEAC12243EA51514FEA9B
:101A30001C5018BF00F5F0404FEA300018BF41F0CD
:101A400000415FEA6C5C00F02980BCF1FF3F08BFF9
:101A500040F080407047130C06BF12044FF0100C8A
:101A60004FF0000C130E04BF12020CF1080C130F00
:101A700004BF12010CF1040C930F04BF92000CF18F
:101A8000020CD30F04BF52000CF1010C11464FF0B1
:101A90000002A0F11F00A0EB0C00704711F0004FF6
:101AA00008BF704731F000413FF4D5AF0B0C06BFC3
:101AB00009044FF0100C4FF0000C0B0E04BF09028C
:101AC0000CF1080C0B0F04BF09010CF1040C8B0F77
:101AD00004BF89000CF1020CCB0F04BF49000CF1CC
:101AE000010CCCF12003A0EB0C0022FA03F302FA64
:101AF0000CF241EA030100F10100704720F07F4C35
:101B000080EA030023F07F47ACEB070303F57C5327
:101B100000F0004003F1FF032DE980494FEA154B27
:101B200009B44FEA144325EA0B4E24EA03480FF2A6
:101B3000042606EB132749083E785FEA320203FBCE
:101B40000667C7F5000707FB06F64FEA54374FEA6A
:101B5000D64606F1020607FB066CCCF1005C4FEAA4
:101B60001C472CEA074C07FB06F40CFB06F504EBBC
:101B700015464FEA961634BF00204FF000404FEA5A
:101B8000D13706FB07FC4FEA1C4C0CFB0BF7D21BB2
:101B900003FB0CF761EB07010CFB0EF7B0EB074002
:101BA00072EB17420CFB08F734BFA2EB0742B2EB13
:101BB000074261EB17414FEA0C444FEA910706FBDD
:101BC00007FC4FEA1C4C0CFB0BF7B0EBC74072EB69
:101BD000573203FB0CF734BFA2EBC742B2EBC7424C
:101BE00061EB57310CFB0EF7B0EBC70072EB57728D
:101BF0000CFB08F734BFA2EBC702B2EBC70261EBE4
:101C00005771039F4FEA816141EA921104EBCC04C2
:101C10004FEAD1374FEA826206FB07FC42EA901294
:101C20004FEA80604FEA1C4C0CFB0BF7D21B03FB06
:101C30000CF761EB07010CFB0EF7B0EB074072EB02
:101C400017420CFB08F734BFA2EB0742B2EB074286
:101C500061EB17414FEA8C554FEA910704EB9C2446
:101C600006FB07FC4FEA1C4C0CFB0BF7B0EBC74024
:101C700072EB573203FB0CF734BFA2EBC742B2EB57
:101C8000C74261EB57310CFB0EF7B0EBC70072EBAC
:101C900057720CFB08F734BFA2EBC702B2EBC702C6
:101CA00061EB577115EB4C254FEA816141EA9211C6
:101CB0004FEA82624FEAD13742EA901206FB07FCF4
:101CC00044F100044FEA80604FEA1C4C0CFB0BF718
:101CD000D21B03FB0CF761EB07010CFB0EF7B0EB1B
:101CE000074072EB17420CFB08F734BFA2EB074228
:101CF000B2EB074261EB174115EB1C154FEA81313E
:101D000041EA92414FEA823242EA90424FEA803001
:101D10004FEA0C7644F1000448EA03434EEA0B48CC
:101D20004FF0000EB2EB080C71EB030724BF6246C4
:101D300039464EEB0E0E4FF0000B00185241494150
:101D40004BEB0B0BB2EB080C71EB03077BF1000BB9
:101D500024BF624639464EEB0E0E4FF0000B0018C2
:101D6000524149414BEB0B0BB2EB080C71EB0307F3
:101D70007BF1000B24BF624639464EEB0E0E51EA52
:101D8000020718BF46F0010616EB0E7655F1000269
:101D900054F1000103D5BDE88901BDE80088BDE824
:101DA0008901BDE80048B619524141EB0101A3F198
:101DB0000103704780807F7E7D7C7B7A797877769F
:101DC00076757473727171706F6E6E6D6C6C6B6A18
:101DD0006A696868676666656464636362616160B6
:101DE000605F5F5E5E5D5D5C5C5B5B5A5A59595833
:101DF000585757565655555554545353525252519D
:101E0000515050504F4F4F4E4E4D4D4D4C4C4C4BF2
:101E10004B4B4A4A4A494949484848474747474639
:101E20004646454545444444444343434342424275
:101E300042414141002B9C4630D477002BD01CB549
:101E40004FEA370703B44FF010004FF01001BAF11A
:101E5000000F06D0BCF1000FDCBF40F0080040F0DE
:101E600008014FF000000FBCBDE810400BF1010B62
:101E7000BBF1010F08BF5FEA170722BF12F1010291
:101E800011F101014FF0004143F1000300F0004067
:101E900043EA00007047F9D35708D0E746EA064600
:101EA00013F1400F4FEA16461FDD13F1200FDFBF7D
:101EB00016430A46002120335B42BED0C3F12007FF
:101EC00046EA064602FA07F74FEA164646EA0706CA
:101ED000C3F1200722FA03F201FA07F721FA03F10E
:101EE0004FF0000342EA0702A7E746EA020646EA85
:101EF00006464FEA164646EA0106BCBF46EA0646D3
:101F0000360C4FF000034FF000024FF0000194E751
:101F10002DE9804C9A46934670B491E8380007C882
:101F200031EA400C48BF34EA430C03D5FFF7E6FD25
:101F3000FFF780FFF0BCBDE8008C2DE9804C9A468D
:101F4000934670B491E8380007C810F0804F08BF7E
:101F500013F0804F03D100F005F8FFF76BFFF0BCE2
:101F6000BDE8008C20F07F4780EA030023F07F4C1F
:101F700007EB0C03A3F57C5300F00040A3F1FE0334
:101F800092F0000F00F0B38095F0000F00F0778022
:101F90002DE901494FEA11404FEA144621EA004871
:101FA00000FB06FC24EA064708FB06F607FB08F8D8
:101FB00000FB07F718EB06484CEB164C4FEA124BA8
:101FC00018EB07484FEA15464CEB174022EA0B4E38
:101FD0000BFB06FC25EA06470EFB06F607FB0EFE8A
:101FE0000BFB07F71EEB064E4CEB164C4FF00006B2
:101FF0001EEB074E4CEB174B18EB0B0840F10000A3
:1020000018EB0E0B58EB000840F100008F1A4FF050
:1020100000013CBFC943661B14BFB5EB040C002193
:102020003CBFC943F61B4FEA17444EEA8E0E27EA1F
:1020300004454FEA1C4704FB07622CEA074C05FBEA
:1020400007F70CFB05F604FB0CFC16EB074642EB0E
:10205000174216EB0C4642EB1C421BEB060658EBF4
:102060000202414146EA9E0601D5BDE80189B61942
:10207000524141EB0101A3F10103BDE801894FEA9F
:1020800014454FEA114724EA054621EA074C05FBAF
:1020900007F406FB07F70CFB06F105FB0CFC11EB44
:1020A000074144EB17444FEA124711EB0C4144EB54
:1020B0001C4422EA074C05FB07F206FB07F70CFB62
:1020C00006F605FB0CFC16EB074642EB174216EB37
:1020D0000C4642EB1C456A1854F1000148BF70479A
:1020E000B619524141EB0101A3F10103704795F08C
:1020F000000F37D04FEA11424FEA144721EA024657
:1021000024EA074C02FB07F106FB07F70CFB06F479
:1021100002FB0CFC14EB074441EB17414FEA154757
:1021200014EB0C4441EB1C4125EA074C02FB07F57C
:1021300006FB07F70CFB06F602FB0CFC16EB07464A
:1021400045EB174516EB0C4645EB1C42121951F1B5
:10215000000148BF7047B619524141EB0101A3F19C
:10216000010370474FEA14454FEA114724EA054638
:1021700021EA074C05FB07F106FB07F70CFB06F20B
:102180004FF0000605FB0CFC12EB074241EB174138
:1021900012EB0C4251EB1C4148BF7047921841EBC7
:1021A0000101A3F10103704710B5044602F022FCBF
:1021B000462002F0F5FB02F045FC012800D110BDDD
:1021C000204602F0EDFB02F03DFC012801D1022087
:1021D000F5E702F027FC0020F1E710B500F046FC1F
:1021E00000F004F81020FFF7DFFF10BD10B501204C
:1021F000FFF7DAFF10BD10B5002402F0FBFB47200B
:1022000002F0CEFB02F01EFC012801D1002010BD1F
:1022100002F0A4FB044602F05FFB02F09FFB00EB20
:10222000042084B202F086FB02F0FCFB2046EEE7BD
:1022300000BFFEE708B50121082001F063FE102071
:102240008DF803000002ADF8000003208DF80200B5
:102250006946044800F04AFB4FF48051014800F001
:10226000DBFB08BD000C014010B54FF48051024863
:1022700000F0D2FB10BD0000000C014010B54FF47F
:102280008051024800F0C6FB10BD0000000C014068
:102290000FB410B5CCB002AC4FA801904FF49471BC
:1022A00002A8019B4E9AFEF74DF8002001900EA166
:1022B000104802F023F90BE014F8011B0D4802F05E
:1022C00069F800BF40210B4801F09BFF0028F9D0BE
:1022D00020780028F0D108A1064802F00FF94CB090
:1022E00010BC5DF814FB00005B4C4F475D202F3E97
:1022F00020000000003801400D0A000010B5002445
:102300001548006820F00F0013490860084600686F
:1023100040F00800086004E0601CC4B2012002F034
:10232000B5FA0E48006808B1642CF5DB642C01DBBB
:10233000012010BD002404E0601CC4B2012002F0A2
:10234000A5FA0648006808B9642CF5DB642C01DBAB
:102350000120EEE70020ECE70408014020012142C3
:1023600008B50121042001F0CDFD4FF48070ADF8D7
:10237000000010208DF8030003208DF8020069464C
:10238000064800F0B3FA4FF48071044800F044FBB3
:1023900000F072F8FFF7B2FF08BD0000000801402E
:1023A00010B5002404E0601CC4B2012002F06EFAF3
:1023B0000D48006808B1642CF5DB002404E0601CC3
:1023C000C4B2012002F062FA0748006808B9642C20
:1023D000F5DB282002F05AFA0348006808B1012012
:1023E00010BD0020FCE700002001214270B5002450
:1023F000002506E06006040EFFF7D2FF0443681CC8
:10240000C5B2082DF6DB204670BD2DE9FC4105461E
:102410000E461746984600F02FF8FFF76FFF30BBC7
:10242000002405E0FFF7E2FF0DF80400601CC4B2D1
:10243000052CF7DB9DF800009DF8011008449DF87D
:10244000021008449DF8031008449DF804108842C7
:1024500010D19DF8000028709DF8010030709DF8A3
:10246000020038709DF8030088F8000002E00120A7
:10247000BDE8FC810020FBE710B50C48006820F0A7
:102480000F000A4908600846006840F00300086031
:10249000002007490860142002F0D2F90120054904
:1024A000C1F8A0011E2002F0F1F910BD040801409E
:1024B000A0012142000021427047000010B5802198
:1024C0000348FEF725FA00200249088010BD0000ED
:1024D000500100204800002070B50546002400BFD0
:1024E00000F0EAF980B90DA10E48FEF71EF9044686
:1024F00054B13A212046FEF7FCF8044614B1641C9E
:10250000204670BD0020FCE7052002F099F9681E06
:1025100085B2002DE4DC0020F3E700004950442C94
:10252000000000005001002008B50121082001F042
:10253000E9FC4FF48070ADF8000010208DF8030026
:1025400003208DF8020069463D4800F0CFF90022D3
:102550004FF480713A4800F061FAFA2002F070F905
:1025600001221102364800F059FA4FF4FA7002F0D5
:1025700067F9FFF7A3FF33A0FFF78AFE03E04FF4EC
:10258000FA7002F05DF935A135A000F047F9002896
:10259000F5D135A0FFF77CFE32A13AA000F03EF95C
:1025A0004FF4FA7002F04CF92EA139A000F036F980
:1025B0004FF4FA7002F044F939A0FFF769FE03E026
:1025C0004FF4FA7002F03CF924A140A000F026F983
:1025D0000028F5D141A0FFF75BFE03E04FF4FA704D
:1025E00002F02EF91DA147A000F018F90028F5D13E
:1025F00048A24CA14E48FFF74BFE03E04FF4FA709F
:1026000002F01EF94BA14DA000F008F90028F5D109
:1026100054A256A159A0FFF73BFE03E04FF4FA7015
:1026200002F00EF961A163A000F0F8F80028F5D1DE
:102630006BA0FFF72DFE74A0FFF72AFE08BD000077
:10264000000C0140302E204154202D20546573741D
:10265000204D43552D383236360000004F4B0000D8
:1026600041540D0A00000000312E2041542B5253DA
:1026700054202D20536F6674205253542038323624
:102680003600000041542B5253540D0A0000000044
:1026900041542B434950434C4F53450D0A00000011
:1026A000322E2041542B43574D4F44453D312C3160
:1026B000202D20534554203832363620576F726B08
:1026C0004D6F6465203D20535441000041542B431D
:1026D000574D4F44453D310D0A000000332E204137
:1026E000542B4357444843503D312C31202D204535
:1026F0004E41424C45205354414D4F44452044489F
:102700004350000041542B4357444843503D312C23
:10271000310D0A006563686F7069333134313539C2
:102720000000000069514F4F4E656F3500000000FA
:10273000B86F0008474F54204950000041542B43C4
:10274000574A41503D2269514F4F4E656F35222CFB
:10275000226563686F7069333134313539220D0A6F
:102760000000000031383833000000003139322ECB
:102770003136382E3130342E31333300352E20416E
:10278000542B4349505354415254202D20434F4E13
:102790004E45435420534552564552202D3E205B12
:1027A0002025733A2573205D00000000434F4E4EF4
:1027B0004543540041542B43495053544152543DD6
:1027C00022544350222C223139322E3136382E31C8
:1027D00030342E313333222C313838330D0A000097
:1027E000362E204553503832363620496E697420D3
:1027F0004F4B204553503832363620494E495420ED
:1028000053554343455353004553503832363620D1
:10281000494E4954205B4F4B5D0000002DE9F041CB
:1028200004460D46C8262046FDF791FF87B23A467A
:1028300021460D4801F086FE0FE000F03DF848B952
:1028400029460A48FDF771FF20B1FFF737FE002047
:10285000BDE8F0810A2001F0F3FF301EA6F101016E
:10286000CEB2EAD10120F3E700440040500100203D
:1028700030B589B004460D46FFF720FE2A4608A170
:1028800001A8FDF779FD0AA101A8FFF7C7FF20B94C
:102890002A462146074801F055FE09B030BD000028
:1028A00041542B43495053454E443D25640D0A0085
:1028B0003E000000004400400A48008808B901209A
:1028C00070470848008808490988884203D10020D9
:1028D00004490880F4E70348008803490880012080
:1028E000EEE70000480000204A0000202DE9F041FA
:1028F000024600250026002000230024002791F82E
:1029000003C00CF00F0591F803C00CF0100CBCF1E3
:10291000000F03D091F802C04CEA050591F800C001
:10292000BCF1000F31D0146800202BE04FF0010CF7
:102930000CFA00F3B1F800C00CEA03069E4220D165
:1029400083004FF00F0C0CFA03F7BC4305FA03FCAD
:102950004CEA040491F803C0BCF1280F06D14FF0F3
:10296000010C0CFA00FCC2F814C00AE091F803C094
:10297000BCF1480F05D14FF0010C0CFA00FCC2F875
:1029800010C0401C0828D1D31460B1F800C0BCF1BD
:10299000FF0F34DD546800202EE000F1080C4FF0EA
:1029A000010808FA0CF3B1F800C00CEA03069E42D5
:1029B00021D183004FF00F0C0CFA03F7BC4305FA4A
:1029C00003FC4CEA040491F803C0BCF1280F05D1C4
:1029D00000F1080C08FA0CF8C2F8148091F803C052
:1029E000BCF1480F07D100F1080C4FF0010808FABC
:1029F0000CF8C2F81080401C0828CED35460BDE803
:102A0000F0810246002093680B400BB1012000E0EA
:102A10000020704741617047016170470AB1016150
:102A200000E04161704700BFFEE7000010B54FF4C1
:102A3000A06000F02BFE01F0E1FE4FF4E13001F068
:102A4000AFFC4FF4E13001F003FD02A1064801F0B4
:102A500055FD10BD20486172647761726520696E12
:102A60006974204F4B0D0A000038014008B5012160
:102A7000082001F047FAC020ADF8000003208DF8CF
:102A8000020014208DF8030069460348FFF72EFF6B
:102A900001F0C8FF08BD0000000C014008B501218D
:102AA000042001F02FFA10208DF803000120ADF86A
:102AB000000003208DF8020069460448FFF716FF66
:102AC00001210248FFF7A8FF08BD000000080140EF
:102AD00010B501210148FFF79FFF10BD000801401C
:102AE00010B501210148FFF795FF10BD0008014016
:102AF00070B5FFF780FB064603F0FCFF054604496E
:102B000003F036FF04464FF07E5104F007F870BD25
:102B1000CDCC8C3F10B50446207B012802D1206823
:102B2000FDF7DBFB002020606060A060207310BD1B
:102B30000246002301230DE002F07F000870D20955
:102B40002AB1087840F080000870491C01E018465E
:102B500070475B1C042BEFDD4FF0FF30F8E770B5DA
:102B600004460E460025206898B90120207330469F
:102B7000FDF784FB20602068E0B100206060A66063
:102B800003E00020216848556D1CA068A842F8D8D1
:102B900010E00220207303E00020216848556D1CDE
:102BA000A068A842F8D800206060A068B04201D2B6
:102BB0000020206070BD00002DE9FF5F07460D4634
:102BC00090463846FDF7C3FD86B22846FDF7BFFDA7
:102BD0001FFA80FA4FF00009F01DFDF74FFB044685
:102BE0001CB9012004B0BDE8F09FF11D2046FDF79F
:102BF0008FFE12A0016821608088A080324639468D
:102C00002046FDF780FD2846FDF7A1FD8346012003
:102C1000002100915B462A46CDE902080191214638
:102C20000A2000F05FF910B94FF0000901E04FF001
:102C300001092046FDF751FB4846D3E72463727330
:102C4000702F00002DE9FF4F83B082468B469146DE
:102C5000159C0025002002900F2701904846FDF7A3
:102C600076FD0FFA80F8B9F1000F03D1012007B00B
:102C7000BDE8F08F08F10200384487B2109808B11F
:102C800045F00205129878B145F004051298FDF759
:102C90005EFDC0B202901398FDF759FD01460298FF
:102CA000001D0844384487B2119820B1012804D08F
:102CB000022808D104E000BF07E045F00C0504E05D
:102CC00045F0140501E00220D1E700BF149808B1D7
:102CD00045F02405BAF1000F02D0BBF1000F01D17D
:102CE0000320C4E745F0C0055046FDF730FD064619
:102CF0005846FDF72CFD3044001D384487B2394654
:102D00002046FFF72CFF206808B90420AFE73946BA
:102D10002068FDF7FDFD10216268501C606020688E
:102D20008154D4E90023D118781FFFF701FF00B2C6
:102D300001900198002804DA2046FFF7EBFE0520F9
:102D400095E7616801980844606000216268501C42
:102D500060602068815404216268501C60602068B3
:102D600081544D216268501C60602068815451215B
:102D70006268501C60602068815454216268501C55
:102D80006060206881546268501C606020688154D3
:102D900004216268501C6060206881546168481C8E
:102DA0006060206845540698010A6268501C6060A3
:102DB000206881540698C1B26268501C6060206827
:102DC0008154C8F307216268501C606020688154F8
:102DD0006268501C6060206800F80280D4E900122C
:102DE000881842464946FDF78EFC606840446060A2
:102DF00005F00400B8B30026139808B938A0139062
:102E00001298FDF7A4FC86B2310A6268501C60601B
:102E1000206881546268501C606020688654D4E940
:102E20000012881832461299FDF76DFC6068304434
:102E300060601398FDF78BFC86B2310A6268501C03
:102E40006060206881546268501C6060206886540D
:102E5000D4E90012881832461399FDF754FC6068D3
:102E60003044606000BF05F08000C8B15046FDF7F7
:102E70006EFC86B2310A6268501C60602068815422
:102E80006268501C606020688654D4E9001288187B
:102E900032465146FDF737FC60683044606000BF41
:102EA00005F04000C8B15846FDF751FC86B2310A22
:102EB0006268501C6060206881546268501C6060C9
:102EC00020688654D4E90012881832465946FDF726
:102ED0001AFC60683044606000BF0020C7E6000054
:102EE000000000002DE9FF4F83B083461746994646
:102EF000139C002500260020029001908046BBF123
:102F0000000F03D1012007B0BDE8F08F00260AE0D2
:102F10000498805D232803D00498805D2B2801D17C
:102F20000220F0E7761C0498805D0028F0D148F07C
:102F30003008119808B148F0010806EB0900851C1B
:102F4000109820B1012804D002280AD105E000BF62
:102F500009E048F00208AD1C05E048F00408AD1C8B
:102F600001E00320CFE700BF8FB33878022821D1DA
:102F70004FF0000A00BF50460AF1010A385C7D2874
:102F8000F9D1AAF1030A0AF1070002900298A9EB0D
:102F9000000AE81CA0EB0A012046FFF7E0FD2068CC
:102FA00008B90420AFE7EA1CA2EB0A012068FDF78C
:102FB000AFFC19E0691D2046FFF7D1FD206808B974
:102FC0000420A0E7691D2068FDF7A2FC0CE0FFE7E4
:102FD000691D2046FFF7C3FD206808B9042092E769
:102FE000691D2068FDF794FC6168481C60602068DA
:102FF00000F80180D4E9000281182846FFF798FD07
:1030000001900198002804DA2046FFF783FD05208F
:1030100079E76168019808446060C6F30721626837
:10302000501C6060206881546268501C6060206899
:103030008654D4E90012881832460499FDF763FBE0
:10304000606830446060109860B14FEA1B2162688C
:10305000501C6060206881546268501C6060206869
:1030600000F802B0C7B1387802280BD1D4E90012B9
:1030700088183946029AFDF7D4FB61680298084423
:10308000606009E0D4E9001288184A463946FDF725
:10309000C8FB606848446060002034E770B50546AE
:1030A0000C4604212046FFF75AFD206808B901208C
:1030B00070BD70216268501C6060206881540221DC
:1030C0006268501C60602068815429126268501C3C
:1030D0006060206881546268501C6060206885547C
:1030E0000020E5E770B505460C4604212046FFF7B1
:1030F00036FD206808B9012070BD62216268501C4D
:1031000060602068815402216268501C6060206801
:10311000815429126268501C606020688154626882
:10312000501C6060206885540020E5E72DE9FF5FB2
:103130008046174699460E9C0026B246B3460025A7
:10314000B8F1000F03D1012004B0BDE8F09F0BE0FF
:1031500057F8250008B90220F6E757F82500FDF7D3
:10316000F6FA0644681CC5B24D45F1DB09EB49008F
:10317000801C00EB060A0AF105012046FFF7EFFC70
:10318000206808B90320DFE782216268501C606074
:1031900020688154D4E9000281185046FFF7C8FC2A
:1031A0000FFA80FBBBF1000F04DA2046FFF7B2FCF8
:1031B0000420C9E76068584460604FEA18216268DB
:1031C000501C6060206881546268501C60602068F8
:1031D00000F80280002524E057F82500FDF7B7FA33
:1031E0000646C6F307216268501C6060206881545F
:1031F0006268501C606020688654D4E90023D018AF
:1032000057F825103246FDF77EFA6068304460605A
:103210000198C1B26268501C606020688154681CCB
:10322000C5B24D45D8DB00208EE7F0B504460D460B
:103230002646012300201060002114E0775C07F08F
:103240007F07106807FB03001060705C00F08000CF
:1032500008B9481CF0BDDB01B3F5001F02D36FF0C5
:103260000100F7E7491CA942E8DB4FF0FF30F1E726
:103270002DE9F84380460C4615461E462F2108F1DD
:103280000600FDF736FA07460020009017B9012026
:10329000BDE8F8837F1C6A46042108F10100FFF7AE
:1032A000C4FF2520FCF7EAFF2060206808B902204F
:1032B000EEE725212068FDF72BFB24223946206804
:1032C000FDF7AFFA243700982C3830803188481C3D
:1032D000FCF7D4FF2860286820B92068FCF7FDFFC0
:1032E0000320D5E73288511C2868FDF711FB32888E
:1032F00039462868FDF795FA0020C9E70146487865
:10330000022801D001207047887810B18878012800
:1033100001D1C878F7E7FF20F5E700002DE9FC5F51
:1033200081460D4614461E46DDE90C8B99F80000D7
:1033300000F00F0A002001900AF008000090CAF384
:1033400041008BF8000001AA042109F10100FFF7F8
:103350006CFF4844471C0198022802D30AF0010080
:1033600010B1FF20BDE8FC9F7878397840EA012051
:1033700020802088801C0199884201D9FF20F1E734
:1033800054A1B81CFDF7D1F908B10F20EAE79BF86A
:10339000000020B101283DD0022877D13BE0009801
:1033A00008B1FF20DEE72188481CFCF767FF286092
:1033B000286808B9FF20D5E72288511C2868FDF746
:1033C000A7FA2288B91C2868FDF72BFA0198801EFD
:1033D0002188401AA8F80000B8F80010481CFCF733
:1033E0004DFF3060306820B92868FCF776FFFF2079
:1033F000B8E7B8F80020511C3068FDF789FAB8F832
:103400000020B4F800C0BB1C0CEB03013068FDF7D2
:1034100008FA4FE000BF2088801C0199884201D93A
:10342000FF209FE72088C01C395C2088801C385C06
:1034300041EA00210E9801800E9808B9FF2091E71B
:103440002188481CFCF71AFF2860286808B9FF206B
:1034500088E72288511C2868FDF75AFA2288B91C8F
:103460002868FDF7DEF90198001F2188401AA8F8A6
:103470000000B8F80010481CFCF700FF306030680E
:1034800028B92868FCF729FFFF206BE710E0B8F89F
:103490000020511C3068FDF73BFAB8F80020B4F862
:1034A00000C03B1D0CEB03013068FDF7BAF901E0E9
:1034B000FF2057E700BF2B212846FDF71AF920B956
:1034C00023212846FDF715F908B1FF204AE700201F
:1034D00048E70000246372657100000001464878E7
:1034E000022801D001207047887820B9C8780A28BE
:1034F00001D10020F7E70120F5E7014648780228CE
:1035000001D001207047887820B9C8780A2801D1F5
:103510000020F7E70120F5E701464878022801D0AE
:1035200001207047887820B9C8780A2801D1002086
:10353000F7E70120F5E702465078022801D0012084
:1035400070479078B0EB112F05D1D078CBB298426C
:1035500001D10020F4E70120F2E70000F8B50446AD
:10356000FF2720780511012D01DB0E2D01DD3846E6
:10357000F8BD032D24D1002000906A460421601C70
:10358000FFF753FE2044461C0098022803D32078FE
:1035900000F0010008B1FF20EAE77078317840EAD6
:1035A0000120801C0099884201D9FF20E0E706A194
:1035B000B01CFDF7BAF808B10F2700E0032700E0C0
:1035C0002F463846D4E7000024637265710000007E
:1035D0000146FF208A78A2B9CA78142A11D10A7943
:1035E00032B1012A05D0022A04D0802A06D103E094
:1035F00000BF00BF002003E0012001E0022000BF67
:1036000000BF7047014601208A781AB9CA781E2A7D
:1036100000D10020704700BFFEE7704770B5002161
:1036200000230F22C47804B3154C246804F4E0642A
:10363000C4F5E064210AC1F10403CA40447804FAE5
:1036400003F184781440214309010E4C0678A155FA
:10365000047804F01F050124AC4005786D11AD001D
:1036600005F1E025C5F8004109E0047804F01F05E4
:103670000124AC40044D0678761145F8264070BD13
:103680000CED00E000E400E080E100E002490143CD
:10369000024A1160704700000000FA050CED00E0DE
:1036A00030B58BB000200790089009900A90012552
:1036B00030A032A333A235A10090404800F01EFF95
:1036C00007A8002102910391CDE9041000912B027B
:1036D00028A2019129A12BA0FFF7B4FA002842D11A
:1036E000089A91B20798FFF7C3F8FA20FEF7F4FEA4
:1036F0000446002C33D02046FFF730FF02282ED19D
:103700002046FFF7FBFD062823D2DFE800F003097F
:103710000E13181D2AA1294800F0F0FE00251DE017
:103720002DA1264800F0EAFE18E035A1234800F05C
:10373000E5FE13E03DA1214800F0E0FE0EE045A1CA
:103740001E4800F0DBFE09E04FA11C4800F0D6FE49
:1037500004E058A1194800F0D1FE00BF00BF07A83F
:10376000FFF7D8F903E05CA1144800F0C7FE284633
:103770000BB030BD3536313638333900746573746B
:103780000000000037373234370000004F6E654EBE
:1037900065745F4465764C696E6B0D0A50524F49F3
:1037A000443A2025732C09415549463A2025732C6B
:1037B0000944455649443A25730D0A000038014032
:1037C000546970733A09E8BF9EE68EA5E68890E5D5
:1037D0008A9F0D0A000000005741524E3A09E8BF87
:1037E0009EE68EA5E5A4B1E8B4A5EFBC9AE58D8F61
:1037F000E8AEAEE99499E8AFAF5C720A0000000051
:103800005741524E3A09E8BF9EE68EA5E5A4B1E8BD
:10381000B4A5EFBC9AE99D9EE6B395E79A84636CE4
:1038200069656E7469640D0A000000005741524ECC
:103830003A09E8BF9EE68EA5E5A4B1E8B4A5EFBCC1
:103840009AE69C8DE58AA1E599A8E5A4B1E8B4A51E
:103850000D0A00005741524E3A09E8BF9EE68EA578
:10386000E5A4B1E8B4A5EFBC9AE794A8E688B7E56B
:10387000908DE68896E5AF86E7A081E99499E8AF58
:10388000AF5C720A000000005741524E3A09E8BF8F
:103890009EE68EA5E5A4B1E8B4A5EFBC8CE6AF9496
:1038A000E5A682E99D9EE6B395746F6B656E0D0A81
:1038B000000000004552523A09E8BF9EE68EA5E599
:1038C000A4B1E8B4A5EFBC9AE69CAAE79FA5E99449
:1038D00099E8AFAF5C720A005741524E3A094D5118
:1038E00054545F5061636B6574436F6E6E656374AF
:1038F000204661696C65640D0A00000070B588B0EF
:1039000005460C460020049005900690079023463B
:103910002A4610A1174800F0F1FD2046FCF717FFDA
:10392000064604A80121002200923346CDE9012178
:103930000390224629460A20FFF7D4FA38B9059A9F
:1039400091B20498FEF794FF04A8FFF7E3F808B0DB
:1039500070BD00005075626C69736820546F7069A7
:10396000633A2025732C204D73673A2025730D0A86
:1039700000000000003801402DE9F04F95B082466C
:103980000020119012901390149010900F900E90B0
:103990000D9000260C90002580460024834650465A
:1039A000FFF7DCFD0646F01E0D287DD2DFE800F0B3
:1039B0002BC2CBE5FE7CFD7CFC7C7C7C07000DAB48
:1039C00010AA0FA95046FFF753FC0546D5B9BDF81C
:1039D00034000090A4A1AD48DDE90F2300F08EFD76
:1039E00011AADDE90F01FFF7E7F858B9A8A1A74828
:1039F00000F084FD129A91B21198FEF739FF11A8D8
:103A0000FFF788F801E1A8480CA90DAA10ABCDE991
:103A1000002102900EAA0FA95046FFF77FFC054631
:103A2000002D7CD1BDF834000090BDF838209FA057
:103A3000DDE90F13FEF72CFC00200890079081466B
:103A4000069000270590049003900290109800F0D3
:103A500075FE8046B8F1000F08D100F049FE02461D
:103A6000A1A10190894800F049FD5EE0A3A1404674
:103A700000F044FE0890A3A1089800F03FFE0790D4
:103A8000A1A1089800F03AFE0690A1A1089800F0C4
:103A900035FE0590A1A1079800F030FE81469FA158
:103AA000069800F02BFE00E0ACE007469DA10598CB
:103AB00000F024FE04909EA1059800F01FFE0390E4
:103AC00096A1059800F01AFE02909CA16F483A69F1
:103AD00000F014FD9BA1D9F81000FCF726FE78B188
:103AE00099A16A4800F00AFD9AA1D9F81000FCF7E4
:103AF00059FF10B9FEF7F4FF17E0FEF7E9FF14E0F5
:103B000090A13869FCF711FE78B193A15F4800F0ED
:103B1000F5FC90A13869FCF745FF20B900E008E00A
:103B2000FEF7ACFB01E0FEF79FFB404600F0B4FD62
:103B300000BF6AE05046FFF7D1FC18B989A153488D
:103B400000F0DCFC61E05046FFF7E6FCA0B98DA177
:103B50004E4800F0D3FC11A90A20FFF7C3FA58B968
:103B60008EA14A4800F0CAFC129A91B21198FEF751
:103B70007FFE11A8FEF7CEFF47E04B480188504674
:103B8000FFF7D9FCC0B98BA1404800F0B7FC11A9E0
:103B90000A20FFF783FA78B98CA13C4800F0AEFC0C
:103BA000129A91B2119802E01EE00FE005E0FEF7D4
:103BB0005FFE11A8FEF7AEFF27E05046FFF79DFC21
:103BC00018B989A1314800F099FC1EE05046FFF772
:103BD000FFFC20B98AA12D4800F090FC03E08FA1E2
:103BE0002A4800F08BFC10E05046FFF70BFD20B98F
:103BF00091A1264800F082FC03E096A1234800F042
:103C00007DFC02E04FF0FF3500BF00BFFEF756FC21
:103C1000681C10B915B0BDE8F08F7D211098FCF735
:103C200068FD0446A4B1681C90B1641C06E014F859
:103C3000012B58460BF1010B09A90A5420783028B2
:103C400002DB20783928F2DD09A8FCF745FD834620
:103C50000F2E01D0032E05D10F98FCF73EFB1098D4
:103C6000FCF73BFB00BFD5E7636D6469643A202530
:103C7000732C207265713A2025732C207265715F58
:103C80006C656E3A2025640D0A0000000038014082
:103C9000546970733A0953656E6420436D645265CC
:103CA00073700D0A000000004C000020746F7069F2
:103CB000633A2025732C20746F7069635F6C656EA6
:103CC0003A2025642C207061796C6F61643A20255C
:103CD000732C207061796C6F61645F6C656E3A2043
:103CE00025640D0A000000004572726F7220626543
:103CF000666F72653A205B25735D0A00636F6D6DB8
:103D0000616E64006C6564006265657000000000AF
:103D1000687453656E736F72000000007374617491
:103D20007573000074656D706572617475726500FD
:103D300068756D6964697479000000005B25735DC6
:103D40000A0000006F000000696E707574206C65D9
:103D5000640A00006F6E0000696E70757420626501
:103D600065700A00546970733A094D5154542050DB
:103D700075626C6973682053656E64204F4B0D0A41
:103D800000000000546970733A095265762050753E
:103D9000626C6973685265630D0A00005469707340
:103DA0003A0953656E64205075626C697368526598
:103DB0006C0D0A00546970733A095265762050758B
:103DC000626C69736852656C0D0A00005469707307
:103DD0003A0953656E64205075626C697368436F6D
:103DE0006D700D0A00000000546970733A09526545
:103DF00076205075626C697368436F6D700D0A00B0
:103E0000546970733A094D51545420537562736369
:103E100072696265204F4B0D0A000000546970738F
:103E20003A094D5154542053756273637269626547
:103E3000204572720D0A0000546970733A094D51A1
:103E4000545420556E537562736372696265204FD6
:103E50004B0D0A00546970733A094D515454205562
:103E60006E537562736372696265204572720D0AE2
:103E70000000000070B586B004460D460026002004
:103E8000029003900490059007E054F826200DA1BD
:103E9000124800F033FB701CC6B2AE42F5DB02A83C
:103EA0002B462246002100901420FFF73FF938B935
:103EB000039A91B20298FEF7DBFC02A8FEF72AFEF5
:103EC00006B070BD53756273637269626520546F8A
:103ED0007069633A2025730D0A0000000038014024
:103EE0007047000029B1064AD2690243044BDA61E7
:103EF00004E0034AD2698243014BDA617047000053
:103F00000010024029B1064A92690243044B9A61AB
:103F100004E0034A92698243014B9A6170470000B2
:103F20000010024030B500210022002400232D4D56
:103F30006D6805F00C0121B1042905D0082923D1B1
:103F400005E0294D056022E0274D05601FE0254D65
:103F50006D6805F47012234D6D6805F480340225F8
:103F600005EB92421CB9214D554305600BE01D4DF8
:103F70006D6805F400351DB11C4D5543056002E028
:103F8000194D5543056002E0174D056000BF00BFA5
:103F9000144D6D6805F0F0010909154D6B5C05685D
:103FA000DD4045600F4D6D6805F4E061090A104D74
:103FB0006B5C4568DD4085600A4D6D6805F46051B5
:103FC000C90A0B4D6B5C4568DD40C560054D6D68E9
:103FD00005F44041890B074D6B5CC568B5FBF3F5F3
:103FE000056130BD0010024000127A0000093D005A
:103FF0000000002010000020704710B500F002F80B
:1040000010BD00000CB500200190009033480068FE
:1040100040F480303149086000BF3048006800F447
:10402000003000900198401C0190009818B9019848
:10403000B0F5A06FF1D12948006800F4003010B14C
:104040000120009001E0002000900098012843D159
:104050002348006840F010002149086008460068C5
:1040600020F0030008600846006840F00200086085
:104070001A48406819494860084640684860084640
:10408000406840F4806048600846406820F47C1036
:1040900048600846406840F4E810486008460068F8
:1040A00040F08070086000BF0C48006800F00070AD
:1040B0000028F9D00948406820F00300074948600B
:1040C0000846406840F00200486000BF034840686E
:1040D00000F00C000828F9D10CBD000000100240CF
:1040E00000200240042808D14FF0E021096941F086
:1040F00004014FF0E022116107E04FF0E02109696F
:1041000021F004014FF0E022116170477047000078
:1041100010B51348006840F00100114908600846D6
:104120004068104908400E494860084600680E493A
:1041300008400B4908600846006820F480200860A9
:104140000846406820F4FE0048604FF41F00886075
:10415000FFF753FF4FF000600449086010BD0000F6
:10416000001002400000FFF8FFFFF6FE08ED00E03F
:1041700010B540F22551044800F050F818B1202144
:10418000014800F029F810BD0038014010B540F298
:1041900025510E4800F042F8B0B10D480088802843
:1041A00002D300200A4908800848001D0088C1B2D7
:1041B000074802880088401C054B18800548815438
:1041C0002021024800F008F810BD00000044004023
:1041D000480000205001002001F40072B2F5007F79
:1041E00000D100BFCA430280704721B1828942F4E6
:1041F0000052828104E082894DF6FF731A40828169
:10420000704702460020B1F5007F00D100BF13883F
:104210000B400BB1012000E00020704770B5024652
:10422000002400230025002040F66A16B14200D188
:1042300000BFC1F3421501F01F03012606FA03F384
:10424000012D02D19689334006E0022D02D1168A53
:10425000334001E0968A33400C12012606FA04F43A
:104260001688344013B10CB1012000E0002070BD6D
:10427000F0B50346002400260025002040F66A170A
:10428000B94200D100BF1846C1F3421401F01F0625
:10429000012707FA06F5012C01D10C3004E0022CAD
:1042A00001D1103000E014301AB107682F430760C5
:1042B00002E00768AF430760F0BD00002DE9F0475A
:1042C00086B005460E460024A24600BFA146002740
:1042D000B08900B100BF2F462C8A4CF6FF70044015
:1042E000F08804432C82AC894EF6F3100440B08869
:1042F00031890843718908430443AC81AC8A4FF685
:10430000FF400440B0890443AC8201A8FFF70AFED5
:104310001F48874202D1DDF810A001E0DDF80CA0B3
:10432000A88900F4004040B10AEBCA0000EB0A1073
:1043300031684900B0FBF1F807E00AEBCA0000EB76
:104340000A1031688900B0FBF1F86420B8FBF0F086
:1043500004012009642101FB1089A88900F40040B0
:1043600040B1322000EBC900B0FBF1F000F00700D3
:10437000044308E0322000EB09106421B0FBF1F0A7
:1043800000F00F0004432C8106B0BDE8F087000068
:1043900000380140C1F308028280704700BFFEE789
:1043A00010B586B0044601210420FFF7ABFD0121C2
:1043B0008803FFF7A7FD18208DF817004FF4007051
:1043C000ADF8140003208DF8160005A91E48FEF76D
:1043D0008DFA04208DF817000002ADF814000320B8
:1043E0008DF8160005A91848FEF780FA0194002000
:1043F000ADF810000C20ADF80E000020ADF80C0058
:10440000ADF80A00ADF8080001A91048FFF756FF03
:1044100001210E48FFF7E9FE012240F225510B4829
:10442000FFF726FF25208DF8000001208DF80300FE
:1044300000208DF8010002208DF802006846FFF789
:10444000EDF806B010BD0000000801400038014042
:1044500010B586B0044601210420FFF753FD012169
:104460004804FFF73FFD18208DF817000420ADF831
:10447000140003208DF8160005A91E48FEF736FA31
:1044800004208DF817000820ADF8140003208DF8E3
:10449000160005A91748FEF729FA01940020ADF887
:1044A00010000C20ADF80E000020ADF80C00ADF8A7
:1044B0000A00ADF8080001A90F48FFF7FFFE01212F
:1044C0000D48FFF792FE012240F225510A48FFF7FE
:1044D000CFFE26208DF8000001208DF8030000207B
:1044E0008DF801008DF802006846FFF797F806B0D6
:1044F00010BD000000080140004400400FB430B57A
:10450000CBB0054601AC50A800904FF4947101A8BF
:10451000009B4F9AFBF716FF002000900BE014F869
:10452000011B2846FFF736FF00BF40212846FFF752
:1045300068FE0028F9D020780028F0D14BB030BCBC
:104540005DF814FB2DE9F04107460C4615460026A0
:104550000DE014F8011B3846FFF71CFF00BF402197
:104560003846FFF74EFE0028F9D0701C86B2AE42E6
:10457000EFDBBDE8F081490050EAC12018BF0420FC
:104580004A0D18BF40F0010040F2FF72B2EB515FDC
:1045900008BF40F00200012808BF052070472DE940
:1045A000F0414F1E00EBC7010446D1E9000115465A
:1045B0001E4637F006020DD02A46334601F09CFE17
:1045C0007F1E04EBC703D3E9002301F0FFFB37F0A4
:1045D0000602F1D1022F25D0042F13D0062F18BFC9
:1045E000BDE8F0812A46334601F086FED4E90A236D
:1045F00001F0ECFB2A46334601F07EFED4E90823A5
:1046000001F0E4FB2A46334601F076FED4E90623A6
:1046100001F0DCFB2A46334601F06EFED4E90423A8
:1046200001F0D4FB2A46334601F066FED4E90223AA
:1046300001F0CCFB2A46334601F05EFED4E90023AC
:10464000BDE8F04101F0C2BB00221346104601490B
:1046500001F078BC0000F03F01F0B8BB0022134627
:104660001046114601F06EBC40F2013200204FF0BE
:10467000E04102F055BB0000024A0020110702F0A1
:104680004FBB000001FDFFFF30380A2801D2012096
:10469000704700207047000070B5044622E025688E
:1046A000A08900F4807020B9A06810B1A068FFF75D
:1046B000F3FFA08900F4807028B9206918B10B4974
:1046C000206909688847A08900F4007028B9206A29
:1046D00018B10649206A09688847204603490968D5
:1046E00088472C46002CDAD170BD00004400002021
:1046F00001480068704700003C00002070B5054686
:104700000E46AC6800E024682CB13146206A00F007
:104710004FF80028F7D1204670BD000010B52820C2
:1047200005490968884704461CB128212046FCF742
:1047300011F9204610BD00004000002010B50446CD
:1047400000221146204600F001F810BD2DE9F04787
:1047500080460D4616460024FFF7E0FF074600207E
:10476000124908600FB9BDE8F087404601F0D2FA5F
:1047700081464946384600F083FD044624B9384650
:10478000FFF78AFF0020EEE766B1204601F0C2FA8B
:104790000446207830B13846FFF77EFF03480460B6
:1047A0000020E0E705B12C603846DCE73C00002043
:1047B00070B504460D462CB9AC4201D0012070BD45
:1047C0000020FCE70DB90120F9E705E0207808B9E1
:1047D0000020F4E7641C6D1C2078FBF7A5FD06465D
:1047E0002878FBF7A1FD8642F0D02078FBF79CFDEE
:1047F00006462878FBF798FD301AE0E710B56FF011
:104800000400FFF76FFC0A4800680A49B0FBF1F0AA
:10481000094908700846007800EB4001C1EBC01060
:104820004FF6FF7101EAC0000449088010BD000086
:104830001400002000127A00380000203A00002006
:104840000146114A12884A434FF0E0235A61002280
:104850009A611A46126942F001021A6100BF4FF0D4
:10486000E022106900F001021AB100F48032002A3F
:10487000F5D04FF0E022126922F001024FF0E02360
:104880001A6100229A6170473A0000200146114ADD
:1048900012784A434FF0E0235A6100229A611A4687
:1048A000126942F001021A6100BF4FF0E022106964
:1048B00000F001021AB100F48032002AF5D04FF066
:1048C000E022126922F001024FF0E0231A61002277
:1048D0009A6170473800002010B5802009490860AF
:1048E00000F020F840200749091F086000F01AF87E
:1048F00040200449086000F015F880200149091F94
:10490000086010BD140C014070B5044600F072F848
:10491000204600F045F800F095F8054600F082F8D2
:10492000284670BD002001E0411CC8B20A28FBDB0C
:104930007047000010B5802007490860FFF7F2FFBC
:10494000402005490860FFF7EDFF40200249091D9E
:104950000860FFF7E7FF10BD100C014070B50024A0
:10496000002516E06006040E40200C490860FFF7A1
:10497000D9FF0A480838006800F0800008B1601CC0
:10498000C4B240200549091D0860FFF7CBFF681C31
:10499000C5B2082DE6DB204670BD0000100C0140BA
:1049A00070B50446002520E004F0800018B1802096
:1049B0000F49086003E080200D49091D0860FFF7DA
:1049C000B1FF40200A490860FFF7ACFF40200849CA
:1049D000091D0860072D02D18020091F08606006AC
:1049E000040EFFF79FFF681CC5B2082DDCDB70BD0D
:1049F000100C014010B58020094908604020086073
:104A0000FFF790FF80200649091D0860FFF78AFF25
:104A100040200349091D0860FFF784FF10BD000016
:104A2000100C014010B58020054908604020091F86
:104A30000860FFF777FF80200149091F086010BD5B
:104A4000140C014010B580200C490860FFF76AFF84
:104A500040200A490860FFF765FF084808380068E9
:104A600000F0800008B1012400E000244020034948
:104A7000091D0860FFF756FF204610BD100C0140CD
:104A800086B000240025FDF7D1FFFEF707F8FDF7FB
:104A9000D1FB07E03DA14148FFF730FD4FF47A70AC
:104AA000FFF7CEFEFDF75CFC0028F3D1FDF795FB88
:104AB000FDF73AFD03E04FF4FA70FFF7C1FEFEF791
:104AC000EFFD0028F7D1FDF7D9FBC820FFF7B8FEAE
:104AD000FDF7CAFB01213248FFF7CCF954E028204A
:104AE00094FBF0F100FB114068B92E4B2E4A2F4980
:104AF0002F48FDF78AFC4620FFF706FF18B9FDF79F
:104B0000F7FF2C490860601C80B20446C82830DBDF
:104B100001212948FDF775FF284908702848FDF74D
:104B2000B7FB28A0FDF7B4FB2248006801F0F4FEB3
:104B3000CDE904012148007808B9012000E00020F7
:104B400018490978184A1278CDE9002102901748CF
:104B500003781748027824A13048FBF70DFC2F4951
:104B60002F48FEF7CBFE1648FDF792FB0024FDF719
:104B7000A5FC0320FDF7B0FC054615B12846FEF75D
:104B8000FBFE0A20FFF75CFEA9E700002044485422
:104B90003131204552524F520D0A00000038014079
:104BA000280000202F0000202E0000202D000020D3
:104BB0002C000020340000200008014030000020BC
:104BC000646F00087075626C697368206461746159
:104BD000202D2D2D2D2D204F6E654E65745F507547
:104BE000626C6973680000007B2248756D223A256B
:104BF000642E25642C2254656D70223A25642E257E
:104C0000642C224C6564223A25642C20224C69676E
:104C10006874223A252E31667D0000005000002085
:104C2000AC6D00082DE9F04705460C4620785B285E
:104C300004D0264804600020BDE8F0870520E86025
:104C4000601C01F067F8044620785D2801D1601CE3
:104C5000F2E7FFF763FD0646A860A86808B90020E0
:104C6000EAE7204601F056F880464146304600F01B
:104C700007FB074601F04EF804460CB90020DBE7BD
:104C800017E0FFF74BFD071E00D1D5E737607E60C8
:104C90003E46601C01F03EF881464946304600F031
:104CA000EFFA804601F036F804460CB90020C3E75D
:104CB00000BF20782C28E4D020785D2801D1601C2A
:104CC000BAE7024804600020B6E700003C0000207C
:104CD000014600220878302806DB0878392803DCF2
:104CE00008783038024415E00878412806DB087857
:104CF000462803DC0878373802440BE0087861283E
:104D000006DB0878662803DC08785738024401E09F
:104D1000002070471201491C0878302806DB08780B
:104D2000392803DC08783038024415E00878412837
:104D300006DB0878462803DC0878373802440BE0A5
:104D40000878612806DB0878662803DC087857387D
:104D5000024401E00020DCE71201491C08783028F9
:104D600006DB0878392803DC08783038024415E07F
:104D70000878412806DB0878462803DC08783738AD
:104D800002440BE00878612806DB0878662803DC1B
:104D900008785738024401E00020BAE71201491CA4
:104DA0000878302806DB0878392803DC08783038A2
:104DB000024415E00878412806DB0878462803DC21
:104DC0000878373802440BE00878612806DB087859
:104DD000662803DC08785738024401E0002098E791
:104DE000104696E72DE9F04F8BB083468A460020A7
:104DF000044605460026674F0021884689460990EB
:104E0000012008909AF800002D2802D1624F0AF183
:104E1000010A9AF80000302801D10AF1010A9AF833
:104E20000000312822DB9AF8000039281EDC00BF80
:104E30001AF8011BA1F1300001F00BFA0022574BC8
:104E4000CDE906012046294601F056FACDE90401D4
:104E5000DDE9062300F0BAFF04460D469AF800008B
:104E6000302803DB9AF800003928E1DD9AF80000C9
:104E70002E2830D19AF8010030282CDB9AF8010056
:104E8000392828DC0AF1010A00BF1AF8011BA1F138
:104E9000300001F0DEF90022404BCDE9060120464A
:104EA000294601F029FACDE90401DDE9062300F0E5
:104EB0008DFF04460D460022364B4046494601F020
:104EC00041FC804689469AF80000302803DB9AF8B6
:104ED00000003928D9DD9AF80000652803D09AF837
:104EE0000000452823D10AF1010A9AF800002B2876
:104EF00002D10AF1010A08E09AF800002D2804D135
:104F00004FF0FF3008900AF1010A08E01AF8010B8F
:104F10003038099901EB810100EB410009909AF8C2
:104F20000000302803DB9AF800003928EEDDDDE9C7
:104F3000082101FB02F001F08CF942464B46CDE915
:104F4000000100F043FF02460B46CDE902010020BC
:104F5000124900F0F3F922462B46CDE9060130460E
:104F6000394601F0C9F9CDE90401DDE9062301F074
:104F7000C3F904460D46CBE906452046294601F013
:104F800039F9CBF814000320CBF80C0050460BB0D5
:104F9000BDE8F08F0000F03F0000F0BF00002440AB
:104FA0002DE9F04706460C4620787B2804D040487F
:104FB00004600020BDE8F0870620F060601C00F06F
:104FC000A9FE044620787D2801D1601CF2E7FFF796
:104FD000A5FB0546B060B06808B90020EAE72046A6
:104FE00000F098FE80464146284600F063F80746E8
:104FF00000F090FE04460CB90020DBE72869286227
:105000000020286120783A2803D029480460002035
:10501000D0E7601C00F07EFE80464146284600F046
:105020002FF9074600F076FE04460CB90020C1E7D0
:1050300031E0FFF773FB071E00D1BBE72F607D60F7
:105040003D46601C00F066FE81464946284600F059
:1050500031F8804600F05EFE04460CB90020A9E756
:10506000286928620020286120783A2803D0104857
:10507000046000209EE7601C00F04CFE814649461B
:10508000284600F0FDF8804600F044FE04460CB9C6
:1050900000208FE700BF20782C28CAD020787D28F8
:1050A00001D1601C86E702480460002082E700000E
:1050B0003C0000202DE9F05F8346884608F101049A
:1050C000002798F80000222805D06A48C0F8008020
:1050D0000020BDE8F09F04E014F8011B5C2900D11A
:1050E000641C2078222804D0207810B1781C071E78
:1050F000F2D1781C6049096888478146B9F1000FF0
:1051000001D10020E5E708F101044D469EE020783A
:105110005C2804D014F8010B05F8010B96E0641C20
:105120002078722818D006DC622809D066280BD0B7
:105130006E287DD10CE0742812D07528F9D113E0C7
:10514000082005F8010B7FE00C2005F8010B7BE03F
:105150000A2005F8010B77E00D2005F8010B73E03C
:10516000092005F8010B6FE0601CFFF7B1FD064652
:10517000241DB6F55C4F02D3B6F5604F00D306B9D7
:1051800062E0B6F5584F1CD3B6F55C4F19D2607883
:105190005C2802D1A078752800D055E0E01CFFF70C
:1051A00097FD8246A41DBAF55C4F02D3BAF5604F55
:1051B00000D349E0C6F30901504661F39F2000F592
:1051C00080360427802E01D2012708E0B6F5006F53
:1051D00001D2022703E0B6F5803F00D203273D4409
:1051E000012F20D0022F15D0032F0AD0042F24D155
:1051F00006F0BF0040F08001681E05460170B60948
:1052000000BF06F0BF0040F08001681E0546017037
:10521000B60900BF06F0BF0040F08001681E0546D9
:105220000170B60900BF1548C05D3043C1B200E04F
:1052300006E0681E0546017000BF00BF3D4403E064
:10524000207805F8010B00BF00BF641C20782228DD
:1052500003D0207800287FF45AAF002028702078EF
:10526000222800D1641CCBF810900420CBF80C004D
:1052700020462EE73C00002040000020BD6D0008C5
:1052800070B505460C460CB9002070BD042224A15F
:105290002046FBF77BFA18B90220E860201DF4E7EE
:1052A000052221A12046FBF771FA18B90020E86019
:1052B000601DEAE704221EA12046FBF767FA20B929
:1052C0000120E8606861201DDFE72078222804D1F2
:1052D00021462846FFF7EEFED7E720782D2805D097
:1052E0002078302807DB2078392804DC214628463E
:1052F000FFF778FDC9E720785B2804D121462846CE
:10530000FFF790FCC1E720787B2804D1214628468E
:10531000FFF746FEB9E7084804600020B5E7000043
:105320006E756C6C0000000066616C7365000000B7
:1053300074727565000000003C0000202DE9F04DFE
:105340001D460C4698B0174621F0004123F000435B
:10535000002814BF4FF0010C4FF0000C0CEB440C74
:10536000FE4A0CEB02064FEA620C66452BD33E0068
:1053700018BF012606EB45061644F94A964222D389
:10538000F84A53EA070C02D0944205D148B918B044
:1053900000201146BDE8F08D002808BF4FF0000C3A
:1053A00001D04FF0010C0CEB440212F5001F0AD89B
:1053B000002F14BF4FF0010C4FF0000C0CEB450216
:1053C00012F5001F07D918B03A462B462146BDE812
:1053D000F04DFFF741B90022DFF88CA3002CB8BFD5
:1053E000534526DADFF884C36345A8BF022220DADA
:1053F000DFF870C39C451CDCDFF874C30CEB235C46
:10540000BCF1140F08DDCCF1340627FA06FC0CFAC7
:1054100006F6BE420DD108E05FB9CCF1140623FABE
:1054200006FC0CFA06F69E4203D10CF00102C2F112
:10543000020251EA000C19D1002D17DA002C18BF16
:10544000022A01D0012A07D00220FBF752FB18B034
:10545000BDE8F04DFFF7F8B80220FBF74AFBFFF775
:10546000F3F818B081F00041BDE8F08DB7F1000C01
:105470006CD1534525D104F1804212F5801201BF51
:1054800000280020B74918B008BFBDE8F08DB54826
:10549000884207DC002DA1BF6046294618B0BDE850
:1054A000F08D07E0281E05DA80F0004118B0604654
:1054B000BDE8F08DAF497944D1E9000118B0BDE8ED
:1054C000F08DDFF8A0C2634525D1002D1FDA19B198
:1054D000514512D1D8B909E0002840F0EC82A24A27
:1054E000214618B062F31E01BDE8F08D0020214670
:1054F00018B060F31E01BDE8F08D08DA18B023463D
:10550000BDE8F04D02460020614600F01BBD18B01A
:105510002146BDE8F08D514518DAB5F1804F0DD028
:10552000A5F1005CBCF1FF5C10D1B4F1000C0DDB07
:1055300018B06146BDE8F04D00F0F5BB234618B049
:105540000246BDE8F04D194600F0D6BE060024F034
:10555000004C3BD1D9B1514533D1002C06DD002D93
:10556000A1BF0020514618B0BDE8F08D002C01DD30
:10557000002D1BDB002C13DA002D11DB012A4FF06C
:10558000000014BF78497C4918B0BDE8F08D022AAC
:1055900018BF002C0AD0012A08D1002C06DA0AE034
:1055A000002CB8BF002D11DA012A04D0002018B059
:1055B0000146BDE8F08D18B000204FF00041BDE875
:1055C000F08DA1F14050B0F17F601AD0012000EBC6
:1055D000E47050EA020421D0624C521E4FF0000BDE
:1055E000104304BF4FF0000B644C654883427CDDE0
:1055F000644A654893421FDD884217DB002D25DB96
:1056000037E0002C00DA4AB1022A0CBF01204FF02B
:10561000FF3018B0BDE8F04D00F01BBE0120FBF7D5
:1056200068FA18B0BDE8F04DFFF718B84D4A8A4245
:1056300002DC002D0ADC1CE0814202DA002D18DABF
:1056400004E0484B994220DD002D12DD0220FBF7DB
:1056500050FAFFF709F805460E4600225346584611
:10566000214600F049FE18B066F31E012846BDE849
:10567000F08D0220FBF73DFAFEF7FEFF0A462146B9
:1056800018B062F31E01BDE8F08D0022304661467D
:1056900001F058F880460E466FF0010201F040FB21
:1056A0004FF05532394B00F05BFF4246334600F075
:1056B00023FE0022364B00F053FF8246424633461B
:1056C00004911046194600F017FE5246049B00F064
:1056D00013FE8A4600904FF0C0422E4B40463146A2
:1056E00000F00AFE2C4A2B4B00E027E0CDE9060132
:1056F0005146009800F000FE82460191274A284B4F
:105700004046314600F0F8FD5246019B01F01AF880
:1057100082460B4602460591DDE9060100F056FB84
:10572000DDE9062300268846304601F00BF8524694
:10573000059B00F015FF024600F07EB90020B1F590
:10574000801F07DA35223046614601F0E9FA064645
:105750006FF0340000EB215024E00000FFFF1F0039
:10576000FFFF0F000000F03F0000F07F000040430B
:1057700001FCFFFFD61900000000F0FF0000F0BFA1
:105780000000E0410000F043FFFFEF3F5555D53FDB
:105790000000E03F4715F73FFE822B6544DF5DF8D0
:1057A0000BAE543EA0F2FF300190C1F3130040F065
:1057B0007F6141F040510291FE498842D8BF0020EC
:1057C00004DDFD498142C8BF012001DD0D9008E0E4
:1057D00000200D900198401C01900298A0F58010C7
:1057E00002900299F54878440B910D9900EBC100A5
:1057F000D0E900230F9330460A920B9900F0A2FFE4
:10580000CDE90601DDE90A2130460F9B00F0DEFA02
:1058100002460B460020EA4900F094FB059102463F
:105820000B460090DDE9060100F066FD1490E548A6
:105830008A464FF0000878440299006812904FF0B1
:10584000005040EA61010D980F9B01EB804000F58C
:10585000002109910A9A129800F074FF32460B9BBE
:1058600000F07EFE4246534600F046FD0646029199
:1058700040465146099B129A00F03EFDDDE90623A1
:1058800000F06EFE3246029B00F05CFF059B009A22
:1058900000F032FD0091149A0490534610461946C8
:1058A00000F02AFD06460246C7480B460291062133
:1058B0007844FEF774FECDE90510029B324610468F
:1058C000194600F019FDDDE9053200F015FD0591DE
:1058D0000646534640461946149A00F077FA009B54
:1058E000049A00F009FD3246059B00F06FFACDE9FD
:1058F0000510424653461046194600F0FDFC0022B2
:10590000B24B02910A9000F061FADDE9053200F035
:105910005DFA0E464246AD4B404600F013FF029B37
:105920000A9A00F00FFFDDE9053200F019FE424649
:1059300002910A9033461046514600F0DDFCCDE955
:1059400006015346149A02990A9800F0D5FC8A463B
:105950000290334642460099049800F0CDFC53462D
:10596000029A00F033FA82460B4602460591DDE9C1
:10597000060100F02BFADDE90623002088460646E2
:1059800000F0E0FE5246059B00F0EAFD82460991D8
:105990004FF060428E4B3046414600F0ADFC049023
:1059A00006918C4A8A4B5046099900F0A5FC824624
:1059B0000291894A894B3046414600F09DFC52468F
:1059C000029B00F003FA864B7B440D9A03EBC20363
:1059D000D3E9002300F0FAF90E900791019800F046
:1059E00038FC0591DDE9061382460E9A049800F012
:1059F000EDF97C4A7A440D9B02EBC303D3E9002303
:105A00000093029200F0E2F95246059B00F0DEF9A5
:105A10000026884652463046059B00F093FE009BC8
:105A2000029A00F08FFE069B049A00F08BFE079B03
:105A30000E9A00F095FD024600200B460290384673
:105A4000294600F059FC824601912B4638461946FA
:105A5000029A00F077FE3246434600F04DFC524673
:105A6000019B00F0B3F907468A4632464346294671
:105A7000029800F041FC05460E463A46534600F0B7
:105A8000A5F9594A8846914221DBA8EB020353EA63
:105A9000000210D12A46334600F054FECDE904013D
:105AA000524A534B3846514600F090F9DDE9042341
:105AB00000F020FD21D20220FBF71BF8FEF7D4FDF9
:105AC0000A46214618B062F31E01BDE8F08D494B2D
:105AD00028F000429A4210D3474A08EB020353EAE7
